{
  "transactions": [
    {
      "hash": "0x7ac35a79f3316f3e3f3504cb5ad3092b4494b7dd9081bd43fec193105b7dd619",
      "transactionType": "CALL",
      "contractName": null,
      "contractAddress": "0xb9439a0f7d1ef78d13905574b7ecd87b0cd52abe",
      "function": "importAddresses(bytes32[],address[])",
      "arguments": [
        "[0x4f696b6f73466163746f72790000000000000000000000000000000000000000]",
        "[0x9F5973EC7E5f0781E0fCE71Dd949c997c38508Fc]"
      ],
      "transaction": {
        "from": "0xcc91eb5d1ab2d577a64acd71f0aa9c5caf35d111",
        "to": "0xb9439a0f7d1ef78d13905574b7ecd87b0cd52abe",
        "value": "0x0",
        "input": "0xab0b8f770000000000000000000000000000000000000000000000000000000000000040000000000000000000000000000000000000000000000000000000000000008000000000000000000000000000000000000000000000000000000000000000014f696b6f73466163746f7279000000000000000000000000000000000000000000000000000000000000000000000000000000000000000000000000000000010000000000000000000000009f5973ec7e5f0781e0fce71dd949c997c38508fc",
        "nonce": "0x41b",
        "chainId": "0x38"
      },
      "additionalContracts": [],
      "isFixedGasLimit": false
    }
  ],
  "receipts": [
    {
      "status": "0x1",
      "cumulativeGasUsed": "0x798e21",
      "logs": [
        {
          "address": "0xb9439a0f7d1ef78d13905574b7ecd87b0cd52abe",
          "topics": [
            "0xefe884cc7f82a6cf3cf68f64221519dcf96b5cae9048e1bb008ee32cd05aaa91"
          ],
          "data": "0x4f696b6f73466163746f727900000000000000000000000000000000000000000000000000000000000000009f5973ec7e5f0781e0fce71dd949c997c38508fc",
          "blockHash": "0xe618e6e7a36e8fe4c8129851d80f79ea86b9d19572b6bce009c0f97258afac0d",
          "blockNumber": "0x478740b",
          "blockTimestamp": "0x69656c34",
          "transactionHash": "0x7ac35a79f3316f3e3f3504cb5ad3092b4494b7dd9081bd43fec193105b7dd619",
          "transactionIndex": "0x48",
          "logIndex": "0xd2",
          "removed": false
        }
      ],
      "logsBloom": "0x00000000000000000000000004000000000000000000000000000000000000000000000000000000000000000000000000000000000000000000000000000000000000000001000000000000000000000000000000000000000000000200000000000000000000000010000000000000000000000000000000000000000000000000000400000000000000000000000000000000000000000000000000000000000000000000000000000000000000000000000000000000000000000000000000000000000000000000000000000000000000000000000000000000000000000000000000000000000000000000000000000000000000000000000000000040",
      "type": "0x2",
      "transactionHash": "0x7ac35a79f3316f3e3f3504cb5ad3092b4494b7dd9081bd43fec193105b7dd619",
      "transactionIndex": "0x48",
      "blockHash": "0xe618e6e7a36e8fe4c8129851d80f79ea86b9d19572b6bce009c0f97258afac0d",
      "blockNumber": "0x478740b",
      "gasUsed": "0x7cf7",
      "effectiveGasPrice": "0x2faf080",
      "from": "0xcc91eb5d1ab2d577a64acd71f0aa9c5caf35d111",
      "to": "0xb9439a0f7d1ef78d13905574b7ecd87b0cd52abe",
      "contractAddress": null
    }
  ],
  "libraries": [],
  "pending": [],
  "returns": {},
  "timestamp": 1768254518082,
  "chain": 56,
  "commit": "eb106c9"
}