{
  "transactions": [
    {
      "hash": "0xcd9d6f4376cb459369a0edddd1449aa5dd90a0d16ed32e72527fc0328cbd2fd9",
      "transactionType": "CALL",
      "contractName": null,
      "contractAddress": "0xb9439a0f7d1ef78d13905574b7ecd87b0cd52abe",
      "function": "importAddresses(bytes32[],address[])",
      "arguments": [
        "[0x4f696b6f73466163746f72790000000000000000000000000000000000000000]",
        "[0x7Ca7553228025caf169DBd02e44c0ccE637de80B]"
      ],
      "transaction": {
        "from": "0xcc91eb5d1ab2d577a64acd71f0aa9c5caf35d111",
        "to": "0xb9439a0f7d1ef78d13905574b7ecd87b0cd52abe",
        "gas": "0xac9b",
        "value": "0x0",
        "input": "0xab0b8f770000000000000000000000000000000000000000000000000000000000000040000000000000000000000000000000000000000000000000000000000000008000000000000000000000000000000000000000000000000000000000000000014f696b6f73466163746f7279000000000000000000000000000000000000000000000000000000000000000000000000000000000000000000000000000000010000000000000000000000007ca7553228025caf169dbd02e44c0cce637de80b",
        "nonce": "0x3c1",
        "chainId": "0x539"
      },
      "additionalContracts": [],
      "isFixedGasLimit": false
    }
  ],
  "receipts": [
    {
      "status": "0x1",
      "cumulativeGasUsed": "0x7cf7",
      "logs": [
        {
          "address": "0xb9439a0f7d1ef78d13905574b7ecd87b0cd52abe",
          "topics": [
            "0xefe884cc7f82a6cf3cf68f64221519dcf96b5cae9048e1bb008ee32cd05aaa91"
          ],
          "data": "0x4f696b6f73466163746f727900000000000000000000000000000000000000000000000000000000000000007ca7553228025caf169dbd02e44c0cce637de80b",
          "blockHash": "0xeb04f45ad9b1de7d58fcce1a463fce797c4d75352941e3f39c81b7f6e5480204",
          "blockNumber": "0x47814bd",
          "transactionHash": "0xcd9d6f4376cb459369a0edddd1449aa5dd90a0d16ed32e72527fc0328cbd2fd9",
          "transactionIndex": "0x0",
          "logIndex": "0x0",
          "removed": false
        }
      ],
      "logsBloom": "0x00000000000000000000000004000000000000000000000000000000000000000000000000000000000000000000000000000000000000000000000000000000000000000001000000000000000000000000000000000000000000000200000000000000000000000010000000000000000000000000000000000000000000000000000400000000000000000000000000000000000000000000000000000000000000000000000000000000000000000000000000000000000000000000000000000000000000000000000000000000000000000000000000000000000000000000000000000000000000000000000000000000000000000000000000000040",
      "type": "0x2",
      "transactionHash": "0xcd9d6f4376cb459369a0edddd1449aa5dd90a0d16ed32e72527fc0328cbd2fd9",
      "transactionIndex": "0x0",
      "blockHash": "0xeb04f45ad9b1de7d58fcce1a463fce797c4d75352941e3f39c81b7f6e5480204",
      "blockNumber": "0x47814bd",
      "gasUsed": "0x7cf7",
      "effectiveGasPrice": "0x2faf080",
      "from": "0xcc91eb5d1ab2d577a64acd71f0aa9c5caf35d111",
      "to": "0xb9439a0f7d1ef78d13905574b7ecd87b0cd52abe",
      "contractAddress": null,
      "deposit_nonce": null
    }
  ],
  "libraries": [],
  "pending": [],
  "returns": {},
  "timestamp": 1768236262576,
  "chain": 1337,
  "commit": "eb106c9"
}