{
  "transactions": [
    {
      "hash": "0x795e27e3ca4e8b1196a917e4931dc51331996689b5e048e8054ec2096578c7a8",
      "transactionType": "CALL",
      "contractName": null,
      "contractAddress": "0xb9439a0f7d1ef78d13905574b7ecd87b0cd52abe",
      "function": "importAddresses(bytes32[],address[])",
      "arguments": [
        "[0x4f696b6f73466163746f72790000000000000000000000000000000000000000]",
        "[0x7Ca7553228025caf169DBd02e44c0ccE637de80B]"
      ],
      "transaction": {
        "from": "0xcc91eb5d1ab2d577a64acd71f0aa9c5caf35d111",
        "to": "0xb9439a0f7d1ef78d13905574b7ecd87b0cd52abe",
        "gas": "0xac9b",
        "value": "0x0",
        "input": "0xab0b8f770000000000000000000000000000000000000000000000000000000000000040000000000000000000000000000000000000000000000000000000000000008000000000000000000000000000000000000000000000000000000000000000014f696b6f73466163746f7279000000000000000000000000000000000000000000000000000000000000000000000000000000000000000000000000000000010000000000000000000000007ca7553228025caf169dbd02e44c0cce637de80b",
        "nonce": "0x3c2",
        "chainId": "0x539"
      },
      "additionalContracts": [],
      "isFixedGasLimit": false
    }
  ],
  "receipts": [
    {
      "status": "0x1",
      "cumulativeGasUsed": "0x7cf7",
      "logs": [
        {
          "address": "0xb9439a0f7d1ef78d13905574b7ecd87b0cd52abe",
          "topics": [
            "0xefe884cc7f82a6cf3cf68f64221519dcf96b5cae9048e1bb008ee32cd05aaa91"
          ],
          "data": "0x4f696b6f73466163746f727900000000000000000000000000000000000000000000000000000000000000007ca7553228025caf169dbd02e44c0cce637de80b",
          "blockHash": "0xd8f21850a032b8aa214d881959b78f01948a2391d437f38adeb68ca716d1bd8a",
          "blockNumber": "0x47817f9",
          "transactionHash": "0x795e27e3ca4e8b1196a917e4931dc51331996689b5e048e8054ec2096578c7a8",
          "transactionIndex": "0x0",
          "logIndex": "0x0",
          "removed": false
        }
      ],
      "logsBloom": "0x00000000000000000000000004000000000000000000000000000000000000000000000000000000000000000000000000000000000000000000000000000000000000000001000000000000000000000000000000000000000000000200000000000000000000000010000000000000000000000000000000000000000000000000000400000000000000000000000000000000000000000000000000000000000000000000000000000000000000000000000000000000000000000000000000000000000000000000000000000000000000000000000000000000000000000000000000000000000000000000000000000000000000000000000000000040",
      "type": "0x2",
      "transactionHash": "0x795e27e3ca4e8b1196a917e4931dc51331996689b5e048e8054ec2096578c7a8",
      "transactionIndex": "0x0",
      "blockHash": "0xd8f21850a032b8aa214d881959b78f01948a2391d437f38adeb68ca716d1bd8a",
      "blockNumber": "0x47817f9",
      "gasUsed": "0x7cf7",
      "effectiveGasPrice": "0x2faf080",
      "from": "0xcc91eb5d1ab2d577a64acd71f0aa9c5caf35d111",
      "to": "0xb9439a0f7d1ef78d13905574b7ecd87b0cd52abe",
      "contractAddress": null,
      "deposit_nonce": null
    }
  ],
  "libraries": [],
  "pending": [],
  "returns": {},
  "timestamp": 1768237103499,
  "chain": 1337,
  "commit": "eb106c9"
}